{
  "_format": "hh-sol-artifact-1",
  "contractName": "LicenseManagement",
  "sourceName": "contracts/LicenseManagement.sol",
  "abi": [
    {
      "inputs": [
        {
          "internalType": "address",
          "name": "_adminAddress",
          "type": "address"
        }
      ],
      "stateMutability": "nonpayable",
      "type": "constructor"
    },
    {
      "anonymous": false,
      "inputs": [
        {
          "indexed": false,
          "internalType": "uint256",
          "name": "licenseId",
          "type": "uint256"
        },
        {
          "indexed": false,
          "internalType": "enum LicenseManagement.LicenseStatus",
          "name": "newStatus",
          "type": "uint8"
        },
        {
          "indexed": true,
          "internalType": "address",
          "name": "reviewer",
          "type": "address"
        }
      ],
      "name": "LicenseReviewed",
      "type": "event"
    },
    {
      "anonymous": false,
      "inputs": [
        {
          "indexed": false,
          "internalType": "uint256",
          "name": "licenseId",
          "type": "uint256"
        },
        {
          "indexed": true,
          "internalType": "address",
          "name": "submitter",
          "type": "address"
        }
      ],
      "name": "LicenseSubmitted",
      "type": "event"
    },
    {
      "inputs": [],
      "name": "adminAddress",
      "outputs": [
        {
          "internalType": "address",
          "name": "",
          "type": "address"
        }
      ],
      "stateMutability": "view",
      "type": "function"
    },
    {
      "inputs": [],
      "name": "getAllLicenseIds",
      "outputs": [
        {
          "internalType": "uint256[]",
          "name": "",
          "type": "uint256[]"
        }
      ],
      "stateMutability": "view",
      "type": "function"
    },
    {
      "inputs": [
        {
          "internalType": "uint256",
          "name": "",
          "type": "uint256"
        }
      ],
      "name": "licenses",
      "outputs": [
        {
          "internalType": "uint256",
          "name": "licenseId",
          "type": "uint256"
        },
        {
          "internalType": "string",
          "name": "companyName",
          "type": "string"
        },
        {
          "internalType": "string",
          "name": "companyAddress",
          "type": "string"
        },
        {
          "internalType": "string",
          "name": "documentIpfsHash",
          "type": "string"
        },
        {
          "internalType": "enum LicenseManagement.LicenseStatus",
          "name": "status",
          "type": "uint8"
        },
        {
          "internalType": "address",
          "name": "submitter",
          "type": "address"
        },
        {
          "internalType": "address",
          "name": "reviewer",
          "type": "address"
        }
      ],
      "stateMutability": "view",
      "type": "function"
    },
    {
      "inputs": [],
      "name": "nextLicenseId",
      "outputs": [
        {
          "internalType": "uint256",
          "name": "",
          "type": "uint256"
        }
      ],
      "stateMutability": "view",
      "type": "function"
    },
    {
      "inputs": [
        {
          "internalType": "uint256",
          "name": "_licenseId",
          "type": "uint256"
        },
        {
          "internalType": "enum LicenseManagement.LicenseStatus",
          "name": "_newStatus",
          "type": "uint8"
        }
      ],
      "name": "reviewLicense",
      "outputs": [],
      "stateMutability": "nonpayable",
      "type": "function"
    },
    {
      "inputs": [
        {
          "internalType": "string",
          "name": "_companyName",
          "type": "string"
        },
        {
          "internalType": "string",
          "name": "_companyAddress",
          "type": "string"
        },
        {
          "internalType": "string",
          "name": "_documentIpfsHash",
          "type": "string"
        }
      ],
      "name": "submitLicense",
      "outputs": [],
      "stateMutability": "nonpayable",
      "type": "function"
    }
  ],
  "bytecode": "0x60806040526001805534801561001457600080fd5b506040516115aa3803806115aa833981810160405281019061003691906100e0565b80600260006101000a81548173ffffffffffffffffffffffffffffffffffffffff021916908373ffffffffffffffffffffffffffffffffffffffff1602179055505061010d565b600080fd5b600073ffffffffffffffffffffffffffffffffffffffff82169050919050565b60006100ad82610082565b9050919050565b6100bd816100a2565b81146100c857600080fd5b50565b6000815190506100da816100b4565b92915050565b6000602082840312156100f6576100f561007d565b5b6000610104848285016100cb565b91505092915050565b61148e8061011c6000396000f3fe608060405234801561001057600080fd5b50600436106100625760003560e01c80631b2ad6f5146100675780631d8dee8714610083578063337908451461009f578063492f471c146100d55780637865da2a146100f3578063fc6f946814610111575b600080fd5b610081600480360381019061007c9190610a52565b61012f565b005b61009d60048036038101906100989190610b54565b610330565b005b6100b960048036038101906100b49190610b94565b6105f7565b6040516100cc9796959493929190610d07565b60405180910390f35b6100dd61081e565b6040516100ea9190610d8b565b60405180910390f35b6100fb610824565b6040516101089190610e64565b60405180910390f35b6101196108d2565b6040516101269190610e86565b60405180910390f35b60006001600081548092919061014490610ed0565b9190505590506040518060e001604052808281526020018581526020018481526020018381526020016000600281111561018157610180610c4f565b5b81526020013373ffffffffffffffffffffffffffffffffffffffff168152602001600073ffffffffffffffffffffffffffffffffffffffff168152506000808381526020019081526020016000206000820151816000015560208201518160010190816101ee9190611124565b5060408201518160020190816102049190611124565b50606082015181600301908161021a9190611124565b5060808201518160040160006101000a81548160ff0219169083600281111561024657610245610c4f565b5b021790555060a08201518160040160016101000a81548173ffffffffffffffffffffffffffffffffffffffff021916908373ffffffffffffffffffffffffffffffffffffffff16021790555060c08201518160050160006101000a81548173ffffffffffffffffffffffffffffffffffffffff021916908373ffffffffffffffffffffffffffffffffffffffff1602179055509050503373ffffffffffffffffffffffffffffffffffffffff167f14a082f4099eba0ec3de86ddeb799b8a81d2210f3ae59e6e5ef9096aee4ea6c8826040516103229190610d8b565b60405180910390a250505050565b600260009054906101000a900473ffffffffffffffffffffffffffffffffffffffff1673ffffffffffffffffffffffffffffffffffffffff163373ffffffffffffffffffffffffffffffffffffffff16146103c0576040517f08c379a00000000000000000000000000000000000000000000000000000000081526004016103b790611268565b60405180910390fd5b6000821180156103d1575060015482105b610410576040517f08c379a0000000000000000000000000000000000000000000000000000000008152600401610407906112d4565b60405180910390fd5b6001600281111561042457610423610c4f565b5b81600281111561043757610436610c4f565b5b1480610466575060028081111561045157610450610c4f565b5b81600281111561046457610463610c4f565b5b145b6104a5576040517f08c379a000000000000000000000000000000000000000000000000000000000815260040161049c90611340565b60405180910390fd5b60008060008481526020019081526020016000209050600060028111156104cf576104ce610c4f565b5b8160040160009054906101000a900460ff1660028111156104f3576104f2610c4f565b5b14610533576040517f08c379a000000000000000000000000000000000000000000000000000000000815260040161052a906113ac565b60405180910390fd5b818160040160006101000a81548160ff0219169083600281111561055a57610559610c4f565b5b0217905550338160050160006101000a81548173ffffffffffffffffffffffffffffffffffffffff021916908373ffffffffffffffffffffffffffffffffffffffff1602179055503373ffffffffffffffffffffffffffffffffffffffff167fc3d8f959519d5684fd9f06d8190bdb14c57bac878b3a415b4ff5fe5a7f45ae5284846040516105ea9291906113cc565b60405180910390a2505050565b600060205280600052604060002060009150905080600001549080600101805461062090610f47565b80601f016020809104026020016040519081016040528092919081815260200182805461064c90610f47565b80156106995780601f1061066e57610100808354040283529160200191610699565b820191906000526020600020905b81548152906001019060200180831161067c57829003601f168201915b5050505050908060020180546106ae90610f47565b80601f01602080910402602001604051908101604052809291908181526020018280546106da90610f47565b80156107275780601f106106fc57610100808354040283529160200191610727565b820191906000526020600020905b81548152906001019060200180831161070a57829003601f168201915b50505050509080600301805461073c90610f47565b80601f016020809104026020016040519081016040528092919081815260200182805461076890610f47565b80156107b55780601f1061078a576101008083540402835291602001916107b5565b820191906000526020600020905b81548152906001019060200180831161079857829003601f168201915b5050505050908060040160009054906101000a900460ff16908060040160019054906101000a900473ffffffffffffffffffffffffffffffffffffffff16908060050160009054906101000a900473ffffffffffffffffffffffffffffffffffffffff16905087565b60015481565b606060006001805461083691906113f5565b67ffffffffffffffff81111561084f5761084e610927565b5b60405190808252806020026020018201604052801561087d5781602001602082028036833780820191505090505b5090506000600190505b6001548110156108ca5780826001836108a091906113f5565b815181106108b1576108b0611429565b5b6020026020010181815250508080600101915050610887565b508091505090565b600260009054906101000a900473ffffffffffffffffffffffffffffffffffffffff1681565b6000604051905090565b600080fd5b600080fd5b600080fd5b600080fd5b6000601f19601f8301169050919050565b7f4e487b7100000000000000000000000000000000000000000000000000000000600052604160045260246000fd5b61095f82610916565b810181811067ffffffffffffffff8211171561097e5761097d610927565b5b80604052505050565b60006109916108f8565b905061099d8282610956565b919050565b600067ffffffffffffffff8211156109bd576109bc610927565b5b6109c682610916565b9050602081019050919050565b82818337600083830152505050565b60006109f56109f0846109a2565b610987565b905082815260208101848484011115610a1157610a10610911565b5b610a1c8482856109d3565b509392505050565b600082601f830112610a3957610a3861090c565b5b8135610a498482602086016109e2565b91505092915050565b600080600060608486031215610a6b57610a6a610902565b5b600084013567ffffffffffffffff811115610a8957610a88610907565b5b610a9586828701610a24565b935050602084013567ffffffffffffffff811115610ab657610ab5610907565b5b610ac286828701610a24565b925050604084013567ffffffffffffffff811115610ae357610ae2610907565b5b610aef86828701610a24565b9150509250925092565b6000819050919050565b610b0c81610af9565b8114610b1757600080fd5b50565b600081359050610b2981610b03565b92915050565b60038110610b3c57600080fd5b50565b600081359050610b4e81610b2f565b92915050565b60008060408385031215610b6b57610b6a610902565b5b6000610b7985828601610b1a565b9250506020610b8a85828601610b3f565b9150509250929050565b600060208284031215610baa57610ba9610902565b5b6000610bb884828501610b1a565b91505092915050565b610bca81610af9565b82525050565b600081519050919050565b600082825260208201905092915050565b60005b83811015610c0a578082015181840152602081019050610bef565b60008484015250505050565b6000610c2182610bd0565b610c2b8185610bdb565b9350610c3b818560208601610bec565b610c4481610916565b840191505092915050565b7f4e487b7100000000000000000000000000000000000000000000000000000000600052602160045260246000fd5b60038110610c8f57610c8e610c4f565b5b50565b6000819050610ca082610c7e565b919050565b6000610cb082610c92565b9050919050565b610cc081610ca5565b82525050565b600073ffffffffffffffffffffffffffffffffffffffff82169050919050565b6000610cf182610cc6565b9050919050565b610d0181610ce6565b82525050565b600060e082019050610d1c600083018a610bc1565b8181036020830152610d2e8189610c16565b90508181036040830152610d428188610c16565b90508181036060830152610d568187610c16565b9050610d656080830186610cb7565b610d7260a0830185610cf8565b610d7f60c0830184610cf8565b98975050505050505050565b6000602082019050610da06000830184610bc1565b92915050565b600081519050919050565b600082825260208201905092915050565b6000819050602082019050919050565b610ddb81610af9565b82525050565b6000610ded8383610dd2565b60208301905092915050565b6000602082019050919050565b6000610e1182610da6565b610e1b8185610db1565b9350610e2683610dc2565b8060005b83811015610e57578151610e3e8882610de1565b9750610e4983610df9565b925050600181019050610e2a565b5085935050505092915050565b60006020820190508181036000830152610e7e8184610e06565b905092915050565b6000602082019050610e9b6000830184610cf8565b92915050565b7f4e487b7100000000000000000000000000000000000000000000000000000000600052601160045260246000fd5b6000610edb82610af9565b91507fffffffffffffffffffffffffffffffffffffffffffffffffffffffffffffffff8203610f0d57610f0c610ea1565b5b600182019050919050565b7f4e487b7100000000000000000000000000000000000000000000000000000000600052602260045260246000fd5b60006002820490506001821680610f5f57607f821691505b602082108103610f7257610f71610f18565b5b50919050565b60008190508160005260206000209050919050565b60006020601f8301049050919050565b600082821b905092915050565b600060088302610fda7fffffffffffffffffffffffffffffffffffffffffffffffffffffffffffffffff82610f9d565b610fe48683610f9d565b95508019841693508086168417925050509392505050565b6000819050919050565b600061102161101c61101784610af9565b610ffc565b610af9565b9050919050565b6000819050919050565b61103b83611006565b61104f61104782611028565b848454610faa565b825550505050565b600090565b611064611057565b61106f818484611032565b505050565b5b818110156110935761108860008261105c565b600181019050611075565b5050565b601f8211156110d8576110a981610f78565b6110b284610f8d565b810160208510156110c1578190505b6110d56110cd85610f8d565b830182611074565b50505b505050565b600082821c905092915050565b60006110fb600019846008026110dd565b1980831691505092915050565b600061111483836110ea565b9150826002028217905092915050565b61112d82610bd0565b67ffffffffffffffff81111561114657611145610927565b5b6111508254610f47565b61115b828285611097565b600060209050601f83116001811461118e576000841561117c578287015190505b6111868582611108565b8655506111ee565b601f19841661119c86610f78565b60005b828110156111c45784890151825560018201915060208501945060208101905061119f565b868310156111e157848901516111dd601f8916826110ea565b8355505b6001600288020188555050505b505050505050565b7f4f6e6c792041646d696e2063616e20706572666f726d2074686973206163746960008201527f6f6e2e0000000000000000000000000000000000000000000000000000000000602082015250565b6000611252602383610bdb565b915061125d826111f6565b604082019050919050565b6000602082019050818103600083015261128181611245565b9050919050565b7f496e76616c6964204c6963656e73652049442e00000000000000000000000000600082015250565b60006112be601383610bdb565b91506112c982611288565b602082019050919050565b600060208201905081810360008301526112ed816112b1565b9050919050565b7f496e76616c6964205374617475732e0000000000000000000000000000000000600082015250565b600061132a600f83610bdb565b9150611335826112f4565b602082019050919050565b600060208201905081810360008301526113598161131d565b9050919050565b7f4c6963656e736520616c72656164792072657669657765642e00000000000000600082015250565b6000611396601983610bdb565b91506113a182611360565b602082019050919050565b600060208201905081810360008301526113c581611389565b9050919050565b60006040820190506113e16000830185610bc1565b6113ee6020830184610cb7565b9392505050565b600061140082610af9565b915061140b83610af9565b925082820390508181111561142357611422610ea1565b5b92915050565b7f4e487b7100000000000000000000000000000000000000000000000000000000600052603260045260246000fdfea26469706673582212201837cad31435e5415682da40e019b21554736c8070b2ac9b46e0ed180560f85f64736f6c634300081c0033",
  "linkReferences": {},
  "deployedLinkReferences": {}
}